{
  "_format": "hh-sol-artifact-1",
  "contractName": "TwitterContract",
  "sourceName": "contracts/TwitterContract.sol",
  "abi": [
    {
      "anonymous": false,
      "inputs": [
        {
          "indexed": false,
          "internalType": "address",
          "name": "recipient",
          "type": "address"
        },
        {
          "indexed": false,
          "internalType": "uint256",
          "name": "tweetId",
          "type": "uint256"
        }
      ],
      "name": "AddTweet",
      "type": "event"
    },
    {
      "anonymous": false,
      "inputs": [
        {
          "indexed": false,
          "internalType": "uint256",
          "name": "tweetId",
          "type": "uint256"
        },
        {
          "indexed": false,
          "internalType": "bool",
          "name": "isDeleted",
          "type": "bool"
        }
      ],
      "name": "DeleteTweet",
      "type": "event"
    },
    {
      "inputs": [
        {
          "internalType": "string",
          "name": "tweetText",
          "type": "string"
        },
        {
          "internalType": "bool",
          "name": "isDeleted",
          "type": "bool"
        }
      ],
      "name": "addTweet",
      "outputs": [],
      "stateMutability": "nonpayable",
      "type": "function"
    },
    {
      "inputs": [
        {
          "internalType": "uint256",
          "name": "tweetId",
          "type": "uint256"
        },
        {
          "internalType": "bool",
          "name": "isDeleted",
          "type": "bool"
        }
      ],
      "name": "deleteTweet",
      "outputs": [],
      "stateMutability": "nonpayable",
      "type": "function"
    },
    {
      "inputs": [],
      "name": "getAllTweets",
      "outputs": [
        {
          "components": [
            {
              "internalType": "uint256",
              "name": "id",
              "type": "uint256"
            },
            {
              "internalType": "address",
              "name": "username",
              "type": "address"
            },
            {
              "internalType": "string",
              "name": "tweetText",
              "type": "string"
            },
            {
              "internalType": "bool",
              "name": "isDeleted",
              "type": "bool"
            }
          ],
          "internalType": "struct TwitterContract.Tweet[]",
          "name": "",
          "type": "tuple[]"
        }
      ],
      "stateMutability": "view",
      "type": "function"
    },
    {
      "inputs": [],
      "name": "getMyTweets",
      "outputs": [
        {
          "components": [
            {
              "internalType": "uint256",
              "name": "id",
              "type": "uint256"
            },
            {
              "internalType": "address",
              "name": "username",
              "type": "address"
            },
            {
              "internalType": "string",
              "name": "tweetText",
              "type": "string"
            },
            {
              "internalType": "bool",
              "name": "isDeleted",
              "type": "bool"
            }
          ],
          "internalType": "struct TwitterContract.Tweet[]",
          "name": "",
          "type": "tuple[]"
        }
      ],
      "stateMutability": "view",
      "type": "function"
    }
  ],
  "bytecode": "0x608060405234801561001057600080fd5b50611094806100206000396000f3fe608060405234801561001057600080fd5b506004361061004c5760003560e01c80635325613514610051578063aefedbc21461006f578063e580339f1461008d578063f0312a37146100a9575b600080fd5b6100596100c5565b6040516100669190610c78565b60405180910390f35b6100776103a7565b6040516100849190610c78565b60405180910390f35b6100a760048036038101906100a29190610e0f565b6106f3565b005b6100c360048036038101906100be9190610e97565b610880565b005b60606000808054905067ffffffffffffffff8111156100e7576100e6610cb8565b5b60405190808252806020026020018201604052801561012057816020015b61010d610962565b8152602001906001900390816101055790505b5090506000805b6000805490508110156102ed57600015156000828154811061014c5761014b610ed7565b5b906000526020600020906004020160030160009054906101000a900460ff16151514156102da576000818154811061018757610186610ed7565b5b9060005260206000209060040201604051806080016040529081600082015481526020016001820160009054906101000a900473ffffffffffffffffffffffffffffffffffffffff1673ffffffffffffffffffffffffffffffffffffffff1673ffffffffffffffffffffffffffffffffffffffff16815260200160028201805461021090610f35565b80601f016020809104026020016040519081016040528092919081815260200182805461023c90610f35565b80156102895780601f1061025e57610100808354040283529160200191610289565b820191906000526020600020905b81548152906001019060200180831161026c57829003601f168201915b505050505081526020016003820160009054906101000a900460ff1615151515815250508383815181106102c0576102bf610ed7565b5b602002602001018190525081806102d690610f96565b9250505b80806102e590610f96565b915050610127565b5060008167ffffffffffffffff81111561030a57610309610cb8565b5b60405190808252806020026020018201604052801561034357816020015b610330610962565b8152602001906001900390816103285790505b50905060005b8281101561039d5783818151811061036457610363610ed7565b5b602002602001015182828151811061037f5761037e610ed7565b5b6020026020010181905250808061039590610f96565b915050610349565b5080935050505090565b60606000808054905067ffffffffffffffff8111156103c9576103c8610cb8565b5b60405190808252806020026020018201604052801561040257816020015b6103ef610962565b8152602001906001900390816103e75790505b5090506000805b600080549050811015610639573373ffffffffffffffffffffffffffffffffffffffff166001600083815260200190815260200160002060009054906101000a900473ffffffffffffffffffffffffffffffffffffffff1673ffffffffffffffffffffffffffffffffffffffff161480156104ba5750600015156000828154811061049757610496610ed7565b5b906000526020600020906004020160030160009054906101000a900460ff161515145b1561062657600081815481106104d3576104d2610ed7565b5b9060005260206000209060040201604051806080016040529081600082015481526020016001820160009054906101000a900473ffffffffffffffffffffffffffffffffffffffff1673ffffffffffffffffffffffffffffffffffffffff1673ffffffffffffffffffffffffffffffffffffffff16815260200160028201805461055c90610f35565b80601f016020809104026020016040519081016040528092919081815260200182805461058890610f35565b80156105d55780601f106105aa576101008083540402835291602001916105d5565b820191906000526020600020905b8154815290600101906020018083116105b857829003601f168201915b505050505081526020016003820160009054906101000a900460ff16151515158152505083838151811061060c5761060b610ed7565b5b6020026020010181905250818061062290610f96565b9250505b808061063190610f96565b915050610409565b5060008167ffffffffffffffff81111561065657610655610cb8565b5b60405190808252806020026020018201604052801561068f57816020015b61067c610962565b8152602001906001900390816106745790505b50905060005b828110156106e9578381815181106106b0576106af610ed7565b5b60200260200101518282815181106106cb576106ca610ed7565b5b602002602001018190525080806106e190610f96565b915050610695565b5080935050505090565b600080805490509050600060405180608001604052808381526020013373ffffffffffffffffffffffffffffffffffffffff16815260200185815260200184151581525090806001815401808255809150506001900390600052602060002090600402016000909190919091506000820151816000015560208201518160010160006101000a81548173ffffffffffffffffffffffffffffffffffffffff021916908373ffffffffffffffffffffffffffffffffffffffff16021790555060408201518160020190805190602001906107cd9291906109a2565b5060608201518160030160006101000a81548160ff0219169083151502179055505050336001600083815260200190815260200160002060006101000a81548173ffffffffffffffffffffffffffffffffffffffff021916908373ffffffffffffffffffffffffffffffffffffffff1602179055507f8b2db9b424f26463510ef5b02c16f2465836b52081b51d2112ec76102053bdea3382604051610873929190610ffd565b60405180910390a1505050565b3373ffffffffffffffffffffffffffffffffffffffff166001600084815260200190815260200160002060009054906101000a900473ffffffffffffffffffffffffffffffffffffffff1673ffffffffffffffffffffffffffffffffffffffff16141561095e5780600083815481106108fc576108fb610ed7565b5b906000526020600020906004020160030160006101000a81548160ff0219169083151502179055507f2430f837dd2fb40e08c064be9db3d0cf2a7a21f8fe716a2a41787dafc66a7e2a8282604051610955929190611035565b60405180910390a15b5050565b604051806080016040528060008152602001600073ffffffffffffffffffffffffffffffffffffffff168152602001606081526020016000151581525090565b8280546109ae90610f35565b90600052602060002090601f0160209004810192826109d05760008555610a17565b82601f106109e957805160ff1916838001178555610a17565b82800160010185558215610a17579182015b82811115610a165782518255916020019190600101906109fb565b5b509050610a249190610a28565b5090565b5b80821115610a41576000816000905550600101610a29565b5090565b600081519050919050565b600082825260208201905092915050565b6000819050602082019050919050565b6000819050919050565b610a8481610a71565b82525050565b600073ffffffffffffffffffffffffffffffffffffffff82169050919050565b6000610ab582610a8a565b9050919050565b610ac581610aaa565b82525050565b600081519050919050565b600082825260208201905092915050565b60005b83811015610b05578082015181840152602081019050610aea565b83811115610b14576000848401525b50505050565b6000601f19601f8301169050919050565b6000610b3682610acb565b610b408185610ad6565b9350610b50818560208601610ae7565b610b5981610b1a565b840191505092915050565b60008115159050919050565b610b7981610b64565b82525050565b6000608083016000830151610b976000860182610a7b565b506020830151610baa6020860182610abc565b5060408301518482036040860152610bc28282610b2b565b9150506060830151610bd76060860182610b70565b508091505092915050565b6000610bee8383610b7f565b905092915050565b6000602082019050919050565b6000610c0e82610a45565b610c188185610a50565b935083602082028501610c2a85610a61565b8060005b85811015610c665784840389528151610c478582610be2565b9450610c5283610bf6565b925060208a01995050600181019050610c2e565b50829750879550505050505092915050565b60006020820190508181036000830152610c928184610c03565b905092915050565b6000604051905090565b600080fd5b600080fd5b600080fd5b600080fd5b7f4e487b7100000000000000000000000000000000000000000000000000000000600052604160045260246000fd5b610cf082610b1a565b810181811067ffffffffffffffff82111715610d0f57610d0e610cb8565b5b80604052505050565b6000610d22610c9a565b9050610d2e8282610ce7565b919050565b600067ffffffffffffffff821115610d4e57610d4d610cb8565b5b610d5782610b1a565b9050602081019050919050565b82818337600083830152505050565b6000610d86610d8184610d33565b610d18565b905082815260208101848484011115610da257610da1610cb3565b5b610dad848285610d64565b509392505050565b600082601f830112610dca57610dc9610cae565b5b8135610dda848260208601610d73565b91505092915050565b610dec81610b64565b8114610df757600080fd5b50565b600081359050610e0981610de3565b92915050565b60008060408385031215610e2657610e25610ca4565b5b600083013567ffffffffffffffff811115610e4457610e43610ca9565b5b610e5085828601610db5565b9250506020610e6185828601610dfa565b9150509250929050565b610e7481610a71565b8114610e7f57600080fd5b50565b600081359050610e9181610e6b565b92915050565b60008060408385031215610eae57610ead610ca4565b5b6000610ebc85828601610e82565b9250506020610ecd85828601610dfa565b9150509250929050565b7f4e487b7100000000000000000000000000000000000000000000000000000000600052603260045260246000fd5b7f4e487b7100000000000000000000000000000000000000000000000000000000600052602260045260246000fd5b60006002820490506001821680610f4d57607f821691505b60208210811415610f6157610f60610f06565b5b50919050565b7f4e487b7100000000000000000000000000000000000000000000000000000000600052601160045260246000fd5b6000610fa182610a71565b91507fffffffffffffffffffffffffffffffffffffffffffffffffffffffffffffffff821415610fd457610fd3610f67565b5b600182019050919050565b610fe881610aaa565b82525050565b610ff781610a71565b82525050565b60006040820190506110126000830185610fdf565b61101f6020830184610fee565b9392505050565b61102f81610b64565b82525050565b600060408201905061104a6000830185610fee565b6110576020830184611026565b939250505056fea26469706673582212207f2ff0bf32d092c7acd231ec8f0b24560dc4dbc1e739477bc3adf306ad28ce4b64736f6c63430008090033",
  "linkReferences": {},
  "deployedLinkReferences": {}
}